:100000000C9435000C945D000C945D000C945D0024
:100010000C945D000C945D000C945D000C945D00EC
:100020000C945D000C94D0010C945D000C94930230
:100030000C945D000C945D000C945D000C945D00CC
:100040000C945D000C945D000C945D000C945D00BC
:100050000C945D000C945D000C945D000C945D00AC
:100060000C945D000C945D008C0311241FBECFEF37
:10007000D8E0DEBFCDBF11E0A0E0B1E0E0ECFAE0F7
:1000800002C005900D92A23BB107D9F712E0A2EB96
:10009000B1E001C01D92AA35B107E1F710E0CAE650
:1000A000D0E004C02297FE010E945A05C836D1074D
:1000B000C9F70E94C9010C945E050C940000CF930F
:1000C000DF93BC018230910510F462E070E0A091F2
:1000D0005802B0915902ED01E0E0F0E040E050E05C
:1000E00021C0888199818617970769F48A819B814D
:1000F000309719F09383828304C0909359028093C0
:100100005802FE0134C06817790738F441155105CB
:1001100019F08417950708F4AC01FE018A819B81D0
:100120009C01E9012097E9F641155105A9F1CA01A1
:10013000861B970B049708F4BA01E0E0F0E02AC0B0
:100140008D919C91119784179507F9F464177507A1
:1001500081F412968D919C911397309719F09383A7
:10016000828304C09093590280935802FD01329615
:100170004CC0CA01861B970BFD01E80FF91F619364
:10018000719302978D939C9340C0FD01828193816E
:100190009C01D9011097A1F68091560290915702C7
:1001A000892B41F480919C0190919D01909357027D
:1001B0008093560240919E0150919F014115510537
:1001C00041F44DB75EB780919A0190919B01481B15
:1001D000590B2091560230915702CA01821B930B92
:1001E0008617970780F0AB014E5F5F4F8417950726
:1001F00050F0420F531F5093570240935602F9019B
:100200006193719302C0E0E0F0E0CF01DF91CF9104
:100210000895CF93DF93009709F450C0EC01229723
:100220001B821A82A0915802B0915902109709F1CD
:1002300040E050E0AC17BD0708F1BB83AA83FE0184
:1002400021913191E20FF31FAE17BF0779F48D9121
:100250009C911197280F391F2E5F3F4F39832883B8
:1002600012968D919C9113979B838A83411551051A
:1002700071F4D0935902C093580220C012968D9108
:100280009C911397AD01009711F0DC01D3CFFA01D7
:10029000D383C28321913191E20FF31FCE17DF0781
:1002A00069F488819981280F391F2E5F3F4FFA0129
:1002B000318320838A819B8193838283DF91CF91D5
:1002C00008950F931F938091B2019091B30101960D
:1002D0009093B3018093B20103E412E0C80160E09F
:1002E00071E00E94FD036091B2017091B301C801F9
:1002F0004AE050E00E94EB048091B4019091B50176
:100300000E9404058091B4019091B50165E070E010
:100310000E9410056CE271E080E090E00E941802FB
:100320001F910F910895EF92FF920F931F931092D8
:10033000B3011092B20103E412E0C80140E855E2B3
:1003400060E070E00E94C3028AE0E82E81E0F82EAF
:10035000C801B7010E94E204C80168E271E00E948E
:10036000E204C80166E471E00E94E204C801B7013A
:100370000E94E20481E090E00E945F008093B4015B
:100380009093B5010E940A051F910F91FF90EF9085
:1003900008950E9473020E9493010E946101FDCFA3
:1003A0001F920F920FB60F9211242F933F938F93AA
:1003B0009F93AF93BF938091BA019091BB01A0919D
:1003C000BC01B091BD013091BE010196A11DB11DCE
:1003D000232F2D5F2D3720F02D570196A11DB11D24
:1003E0002093BE018093BA019093BB01A093BC01FE
:1003F000B093BD018091B6019091B701A091B80171
:10040000B091B9010196A11DB11D8093B6019093E1
:10041000B701A093B801B093B901BF91AF919F917B
:100420008F913F912F910F900FBE0F901F901895B5
:100430009B01AC017FB7F8948091B6019091B70110
:10044000A091B801B091B90162B708B600FE05C02D
:100450006F3F19F00196A11DB11D7FBFBA2FA92FC3
:10046000982F8827860F911DA11DB11D62E0880F6E
:10047000991FAA1FBB1F6A95D1F7BC012EC0FFB7F9
:10048000F8948091B6019091B701A091B801B09114
:10049000B901E2B708B600FE05C0EF3F19F00196BA
:1004A000A11DB11DFFBFBA2FA92F982F88278E0F2E
:1004B000911DA11DB11DE2E0880F991FAA1FBB1F4E
:1004C000EA95D1F7861B970B885E9340C0F22150C6
:1004D00030404040504068517C4F21153105410566
:1004E000510569F60895789483B7826083BF83B716
:1004F000816083BF89B7816089BF1EBC8EB5826071
:100500008EBD8EB581608EBD8FB581608FBD85B586
:10051000846085BD85B5806485BD329A319A309AF4
:10052000379A1AB808951F920F920FB60F9211249E
:100530002F933F934F938F939F93EF93FF934CB1E0
:10054000E0913F02F091400231969F012F77307089
:10055000319780914102909142022817390739F072
:10056000E154FE4F40833093400220933F02FF91BD
:10057000EF919F918F914F913F912F910F900FBECF
:100580000F901F901895CF93DF93EC019A01AB0168
:10059000E885F985203081EE380780E0480780E063
:1005A000580709F447C081E090E00A8802C0880F2C
:1005B000991F0A94E2F7808360E079E08DE390E090
:1005C0005CD22150304040405040CA01B90122E085
:1005D00030E040E050E051D2EC81FD813083EE818B
:1005E000FF812083EA85FB85208141E050E0CA013C
:1005F0000E8402C0880F991F0A94E2F7282B2083EB
:10060000EA85FB852081CA010F8402C0880F991FEB
:100610000A94E2F7282B2083EA85FB8580810888ED
:1006200002C0440F551F0A94E2F7842B8083DF91A8
:10063000CF910895108220E130E0CECFDC011296F8
:10064000ED91FC911397E058FF4F219131918081FA
:100650009181281B390B2F773070C9010895DC0177
:100660001296ED91FC911397EE57FF4F2081318147
:1006700092918291E058F0408217930719F42FEF7E
:100680003FEF05C0E20FF31F8081282F30E0C90142
:100690000895DC011296ED91FC911397DF01AE579E
:1006A000BF4F2D913C911197E058FF4F8081918170
:1006B000E058F0408217930719F42FEF3FEF0BC07B
:1006C000E20FF31F80812F5F3F4F2F7730702D9304
:1006D0003C93282F30E0C9010895DC011296ED917A
:1006E000FC911397EE57FF4F8081918192938293F3
:1006F0000895FC01A085B18521898C9190E0022E9E
:1007000002C0959587950A94E2F780FFF6CF04849E
:10071000F585E02D6083089584EA91E0909344028A
:10072000809343028FEB91E09093460280934502C1
:1007300080E490E0909348028093470289E290E041
:1007400090934A02809349028BE290E090934C028E
:1007500080934B028AE290E090934E0280934D0288
:100760008CE290E09093500280934F0284E080935B
:10077000510283E08093520287E08093530285E028
:100780008093540281E08093550208950F931F9344
:10079000CF93DF938C01EB0109C02196D801ED9135
:1007A000FC910190F081E02DC801099568816623D4
:1007B000A1F7DF91CF911F910F910895EF92FF92D2
:1007C0000F931F93CF93DF938C017B01EA010CC041
:1007D000D7016D917D01D801ED91FC910190F081DF
:1007E000E02DC80109952197209791F7DF91CF91CE
:1007F0001F910F91FF90EF900895DC01ED91FC9116
:100800000280F381E02D099508952F923F924F9237
:100810005F926F927F928F929F92AF92BF92CF9290
:10082000DF92EF92FF920F931F93DF93CF93CDB799
:10083000DEB7A0970FB6F894DEBF0FBECDBF1C0188
:100840006A017B01411551056105710541F440E3E1
:1008500050E060E070E020E030E06BD051C08824D0
:1008600099245401422E55246624772401E010E097
:100870000C0F1D1F080D191DC701B601A301920120
:10088000DAD0F80160830894811C911CA11CB11C72
:10089000C701B601A3019201CED0C901DA016C01F2
:1008A0007D01C114D104E104F10401F781E0E82ED7
:1008B000F12CEC0EFD1EE80CF91C3E010894611CA5
:1008C000711CD501C4010197A109B1096C01C818B7
:1008D000D90813C0F601EE0DFF1D40814A3010F417
:1008E000405D01C0495C50E060E070E0C10120E083
:1008F00030E01FD00894E108F1086E147F0451F72E
:10090000A0960FB6F894DEBF0FBECDBFCF91DF919A
:100910001F910F91FF90EF90DF90CF90BF90AF901D
:100920009F908F907F906F905F904F903F902F900F
:100930000895EF92FF920F931F93CF93DF93EC01F3
:100940007A018B012115310541F4E881F98101908B
:10095000F081E02D642F099519C02A303105A9F4E2
:1009600077FF0FC04DE250E060E070E020E030E043
:10097000E0DF10950095F094E094E11CF11C011D5E
:10098000111DCE01B801A7012AE03FDFDF91CF9111
:100990001F910F91FF90EF9008950F931F938C017B
:1009A0004DE050E060E070E020E030E0C2DFC801E0
:1009B0004AE050E060E070E020E030E0BADF1F91F4
:1009C0000F9108950F931F938C0117DFC801E5DF86
:1009D0001F910F910895CF92DF92EF92FF920F93A4
:1009E0001F938C016B019A01EE24D7FCE094FE2C3E
:1009F000B701A6019EDFC801D0DF1F910F91FF90C4
:100A0000EF90DF90CF90089583E492E066E571E087
:100A1000D9DF089583E492E060E771E0D3DF0895C1
:100A200083E492E06BE871E0CDDF6AE070E080E0A3
:100A300090E0FEDC0895A1E21A2EAA1BBB1BFD016B
:100A40000DC0AA1FBB1FEE1FFF1FA217B307E407AD
:100A5000F50720F0A21BB30BE40BF50B661F771F05
:100A6000881F991F1A9469F76095709580959095E5
:100A70009B01AC01BD01CF01089597FB092E05260E
:100A80000ED057FD04D0D7DF0AD0001C38F45095A3
:100A90004095309521953F4F4F4F5F4F0895F6F7A2
:100AA00090958095709561957F4F8F4F9F4F0895DA
:100AB000EE0FFF1F0590F491E02D0994F894FFCFFD
:100AC0006C6F6F70206E722E20002D2D2D2D2D2D10
:100AD0002D2D2D2D2D2D2D2D2D2D2D2D2D2D2D2D46
:100AE0002D2D2D2D2D2D2D00202020736179696E47
:100AF000672068692066726F6D2058436F646534A3
:100B00002020202020002020202E2E2E2061676112
:100B1000696E2020200020546573745468696E67E4
:100B20003A20646F20736F6D657468696E67210089
:100B300020546573745468696E6720697320736507
:100B400074757020616761696E210020616E6F7439
:100B5000686572207468696E670020005A020000A0
:100B6000000000007903C603DE031E0349032F03C0
:020B70006D0313
:00000001FF
