:100000000C9463000C948B000C948B000C948B006C
:100010000C948B000C948B000C948B000C948B0034
:100020000C948B000C948B000C948B000C948B0024
:100030000C948B000C948B000C948B000C948B0014
:100040000C94F4000C948B000C9418020C948B000C
:100050000C948B000C948B000C948B000C948B00F4
:100060000C948B000C948B000000000024002700EF
:100070002A0000000000250028002B0000000000DE
:1000800023002600290004040404040404040202DA
:100090000202020203030303030301020408102007
:1000A0004080010204081020010204081020000012
:1000B0000007000201000003040600000000000029
:1000C00000008D00140311241FBECFEFD8E0DEBF67
:1000D000CDBF11E0A0E0B1E0EEECFAE002C0059087
:1000E0000D92A834B107D9F711E0A8E4B1E001C03E
:1000F0001D92AA3EB107E1F710E0C6ECD0E004C0C3
:100100002297FE010E946105C23CD107C9F70E94F7
:10011000ED000C9465050C94000088E491E00E94C9
:10012000D0010895282F88EE93E0622F70E00E949E
:10013000FB04AB0188E491E0622F70E00E94DD01D6
:10014000089587ED91E060E071E00E94850383E00F
:100150000E94920085E00E94920068EE73E080E0C9
:1001600090E00E943C010895CF92DF92EF92FF92BF
:100170000F931F9307ED11E0C80140E855E260E0DE
:1001800070E00E94490298E4C92E91E0D92EC60180
:100190006DE070E00E94100283E1E82E81E0F82E0D
:1001A000C801B7010E947204C80166E271E00E94B2
:1001B0007204C801B7010E947204C6010E94D701EF
:1001C00068EE73E080E090E00E943C011F910F9187
:1001D000FF90EF90DF90CF9008950E9495010E94CC
:1001E000B4000E94A100FDCF1F920F920FB60F9294
:1001F00011242F933F938F939F93AF93BF9380913D
:100200004E0190914F01A0915001B0915101309158
:1002100052010196A11DB11D232F2D5F2D3720F016
:100220002D570196A11DB11D2093520180934E01BF
:1002300090934F01A0935001B093510180914A01D6
:1002400090914B01A0914C01B0914D010196A11DDF
:10025000B11D80934A0190934B01A0934C01B09340
:100260004D01BF91AF919F918F913F912F910F9031
:100270000FBE0F901F9018959B01AC017FB7F894AB
:1002800080914A0190914B01A0914C01B0914D0198
:1002900066B5A89B05C06F3F19F00196A11DB11D61
:1002A0007FBFBA2FA92F982F8827860F911DA11DD8
:1002B000B11D62E0880F991FAA1FBB1F6A95D1F775
:1002C000BC012DC0FFB7F89480914A0190914B0179
:1002D000A0914C01B0914D01E6B5A89B05C0EF3F40
:1002E00019F00196A11DB11DFFBFBA2FA92F982F9C
:1002F00088278E0F911DA11DB11DE2E0880F991F67
:10030000AA1FBB1FEA95D1F7861B970B885E934007
:10031000C8F2215030404040504068517C4F211578
:1003200031054105510571F60895789484B58260D0
:1003300084BD84B5816084BD85B5826085BD85B589
:10034000816085BDEEE6F0E0808181608083E1E838
:10035000F0E0108280818260808380818160808370
:10036000E0E8F0E0808181608083E1EBF0E0808173
:1003700084608083E0EBF0E0808181608083EAE745
:10038000F0E08081846080838081826080838081CE
:10039000816080838081806880831092C10008958D
:1003A0000895FC01808160E00E94A3040895FC018F
:1003B000808161E00E94A3040895AF92BF92CF9222
:1003C000DF92EF92FF920F931F93CF93DF935C0125
:1003D0006B0116161706CCF4C0E0D0E07A010027B6
:1003E000F7FC0095102FC5010E94D701C801B70185
:1003F0000E943C01C5010E94D101C801B7010E94C1
:100400003C012196CC15DD0574F3DF91CF911F914E
:100410000F91FF90EF90DF90CF90BF90AF90089535
:10042000FC01862F6083718361E00E947D04089542
:100430001F920F920FB60F9211242F933F934F9359
:100440008F939F93EF93FF934091C600E091D30168
:10045000F091D40131969F012F77307031978091C0
:10046000D5019091D6012817390739F0ED5AFE4F82
:1004700040833093D4012093D301FF91EF919F915A
:100480008F914F913F912F910F900FBE0F901F9022
:100490001895CF93DF93EC019A01AB01E885F985BC
:1004A000203081EE380780E0480780E0580709F4E3
:1004B00049C081E090E00A8802C0880F991F0A9421
:1004C000E2F7808360E079E08DE390E00E94300500
:1004D0002150304040405040CA01B90122E030E094
:1004E00040E050E00E943005EC81FD813083EE81D8
:1004F000FF812083EA85FB85208141E050E0CA012D
:100500000E8402C0880F991F0A94E2F7282B2083DB
:10051000EA85FB852081CA010F8402C0880F991FDC
:100520000A94E2F7282B2083EA85FB8580810888DE
:1005300002C0440F551F0A94E2F7842B8083DF9199
:10054000CF910895108220E130E0CECFDC011296E9
:10055000ED91FC911397E058FF4F219131918081EB
:100560009181281B390B2F773070C9010895DC0168
:100570001296ED91FC911397EE57FF4F2081318138
:1005800092918291E058F0408217930719F42FEF6F
:100590003FEF05C0E20FF31F8081282F30E0C90133
:1005A0000895DC011296ED91FC911397DF01AE578F
:1005B000BF4F2D913C911197E058FF4F8081918161
:1005C000E058F0408217930719F42FEF3FEF0BC06C
:1005D000E20FF31F80812F5F3F4F2F7730702D93F5
:1005E0003C93282F30E0C9010895DC011296ED916B
:1005F000FC911397EE57FF4F8081918192938293E4
:100600000895FC01A085B18521898C9190E0022E8E
:1006100002C0959587950A94E2F780FFF6CF04848F
:10062000F585E02D6083089589E391E09093D801EA
:100630008093D70183E591E09093DA018093D9010B
:1006400085EC90E09093DC018093DB0184EC90E0FA
:100650009093DE018093DD0180EC90E09093E001C7
:100660008093DF0181EC90E09093E2018093E101BF
:1006700086EC90E09093E4018093E30184E0809322
:10068000E50183E08093E60187E08093E70185E060
:100690008093E80181E08093E90108950F931F930F
:1006A000CF93DF938C01EB0109C02196D801ED9126
:1006B000FC910190F081E02DC801099568816623C5
:1006C000A1F7DF91CF911F910F910895EF92FF92C3
:1006D0000F931F93CF93DF938C017B01EA010CC032
:1006E000D7016D917D01D801ED91FC910190F081D0
:1006F000E02DC80109952197209791F7DF91CF91BF
:100700001F910F91FF90EF900895DC01ED91FC9106
:100710000280F381E02D099508952F923F924F9228
:100720005F926F927F928F929F92AF92BF92CF9281
:10073000DF92EF92FF920F931F93DF93CF93CDB78A
:10074000DEB7A0970FB6F894DEBF0FBECDBF1C0179
:100750006A017B01411551056105710549F440E3CA
:1007600050E060E070E020E030E00E94250454C0DA
:10077000882499245401422E55246624772401E0CC
:1007800010E00C0F1D1F080D191DC701B601A301B4
:1007900092010E940E05F80160830894811C911C4F
:1007A000A11CB11CC701B601A30192010E940E0554
:1007B000C901DA016C017D01C114D104E104F10425
:1007C000F1F681E0E82EF12CEC0EFD1EE80CF91C90
:1007D0003E010894611C711CD501C4010197A10957
:1007E000B1096C01C818D90814C0F601EE0DFF1D3F
:1007F00040814A3010F4405D01C0495C50E060E047
:1008000070E0C10120E030E00E9425040894E10876
:10081000F1086E147F0449F7A0960FB6F894DEBF76
:100820000FBECDBFCF91DF911F910F91FF90EF9041
:10083000DF90CF90BF90AF909F908F907F906F9000
:100840005F904F903F902F900895EF92FF920F93FB
:100850001F93CF93DF93EC017A018B0121153105B2
:1008600041F4E881F9810190F081E02D642F099530
:100870001BC02A303105B1F477FF10C04DE250E0C3
:1008800060E070E020E030E00E94250410950095C3
:10089000F094E094E11CF11C011D111DCE01B80182
:1008A000A7012AE00E948D03DF91CF911F910F9144
:1008B000FF90EF9008950F931F938C014DE050E04F
:1008C00060E070E020E030E00E942504C8014AE0CA
:1008D00050E060E070E020E030E00E9425041F91CD
:1008E0000F9108950F931F938C010E948503C801F7
:1008F0000E945B041F910F910895482F50E0CA0198
:1009000086569F4FFC0124914A575F4FFA0184910C
:100910008823C1F0E82FF0E0EE0FFF1FE859FF4FEA
:10092000A591B491662341F49FB7F8948C912095DA
:1009300082238C939FBF08959FB7F8948C91822B4C
:100940008C939FBF0895482F50E0CA0182559F4F56
:10095000FC012491CA0186569F4FFC0134914A57ED
:100960005F4FFA019491992309F444C0222351F175
:10097000233071F0243028F42130A1F0223011F519
:1009800014C02630B1F02730C1F02430D9F404C0AF
:10099000809180008F7703C0809180008F7D80934D
:1009A000800010C084B58F7702C084B58F7D84BD70
:1009B00009C08091B0008F7703C08091B0008F7D17
:1009C0008093B000E92FF0E0EE0FFF1FEE58FF4FCD
:1009D000A591B491662341F49FB7F8948C9130951A
:1009E00083238C939FBF08959FB7F8948C91832B9A
:1009F0008C939FBF089597FB092E07260AD077FD99
:100A000004D049D006D000201AF4709561957F4F2C
:100A10000895F6F7909581959F4F0895A1E21A2EBB
:100A2000AA1BBB1BFD010DC0AA1FBB1FEE1FFF1F92
:100A3000A217B307E407F50720F0A21BB30BE40BE2
:100A4000F50B661F771F881F991F1A9469F7609529
:100A50007095809590959B01AC01BD01CF010895E3
:100A600097FB092E05260ED057FD04D0D7DF0AD0FC
:100A7000001C38F450954095309521953F4F4F4FCD
:100A80005F4F0895F6F790958095709561957F4F2B
:100A90008F4F9F4F0895AA1BBB1B51E107C0AA1F90
:100AA000BB1FA617B70710F0A61BB70B881F991F0F
:100AB0005A95A9F780959095BC01CD010895EE0F48
:0E0AC000FF1F0590F491E02D0994F894FFCFEC
:100ACE000A20616E6F7468657220626C696E6B21AC
:100ADE00200A002D2D2D2D2D2D2D2D2D2D2D2D2D95
:100AEE002D2D2D2D2D0020202068656C6C6F20770C
:100AFE006F726C64000000000001034E036603A6D3
:080B0E0002D102B702F502005A
:00000001FF
